{
  "contractName": "Dex",
  "abi": [
    {
      "anonymous": false,
      "inputs": [
        {
          "indexed": true,
          "internalType": "address",
          "name": "previousOwner",
          "type": "address"
        },
        {
          "indexed": true,
          "internalType": "address",
          "name": "newOwner",
          "type": "address"
        }
      ],
      "name": "OwnershipTransferred",
      "type": "event"
    },
    {
      "inputs": [
        {
          "internalType": "bytes32",
          "name": "ticker",
          "type": "bytes32"
        },
        {
          "internalType": "address",
          "name": "tokenAddress",
          "type": "address"
        }
      ],
      "name": "addToken",
      "outputs": [],
      "stateMutability": "nonpayable",
      "type": "function"
    },
    {
      "inputs": [
        {
          "internalType": "address",
          "name": "",
          "type": "address"
        },
        {
          "internalType": "bytes32",
          "name": "",
          "type": "bytes32"
        }
      ],
      "name": "balances",
      "outputs": [
        {
          "internalType": "uint256",
          "name": "",
          "type": "uint256"
        }
      ],
      "stateMutability": "view",
      "type": "function",
      "constant": true
    },
    {
      "inputs": [
        {
          "internalType": "uint256",
          "name": "amount",
          "type": "uint256"
        },
        {
          "internalType": "bytes32",
          "name": "ticker",
          "type": "bytes32"
        }
      ],
      "name": "deposit",
      "outputs": [],
      "stateMutability": "nonpayable",
      "type": "function"
    },
    {
      "inputs": [],
      "name": "depositEth",
      "outputs": [],
      "stateMutability": "payable",
      "type": "function",
      "payable": true
    },
    {
      "inputs": [],
      "name": "nextOrderId",
      "outputs": [
        {
          "internalType": "uint256",
          "name": "",
          "type": "uint256"
        }
      ],
      "stateMutability": "view",
      "type": "function",
      "constant": true
    },
    {
      "inputs": [
        {
          "internalType": "bytes32",
          "name": "",
          "type": "bytes32"
        },
        {
          "internalType": "uint256",
          "name": "",
          "type": "uint256"
        },
        {
          "internalType": "uint256",
          "name": "",
          "type": "uint256"
        }
      ],
      "name": "orderBook",
      "outputs": [
        {
          "internalType": "uint256",
          "name": "id",
          "type": "uint256"
        },
        {
          "internalType": "address",
          "name": "trader",
          "type": "address"
        },
        {
          "internalType": "enum Dex.Side",
          "name": "side",
          "type": "uint8"
        },
        {
          "internalType": "bytes32",
          "name": "ticker",
          "type": "bytes32"
        },
        {
          "internalType": "uint256",
          "name": "amount",
          "type": "uint256"
        },
        {
          "internalType": "uint256",
          "name": "price",
          "type": "uint256"
        },
        {
          "internalType": "uint256",
          "name": "filled",
          "type": "uint256"
        }
      ],
      "stateMutability": "view",
      "type": "function",
      "constant": true
    },
    {
      "inputs": [],
      "name": "owner",
      "outputs": [
        {
          "internalType": "address",
          "name": "",
          "type": "address"
        }
      ],
      "stateMutability": "view",
      "type": "function",
      "constant": true
    },
    {
      "inputs": [],
      "name": "renounceOwnership",
      "outputs": [],
      "stateMutability": "nonpayable",
      "type": "function"
    },
    {
      "inputs": [
        {
          "internalType": "uint256",
          "name": "",
          "type": "uint256"
        }
      ],
      "name": "tokenList",
      "outputs": [
        {
          "internalType": "bytes32",
          "name": "",
          "type": "bytes32"
        }
      ],
      "stateMutability": "view",
      "type": "function",
      "constant": true
    },
    {
      "inputs": [
        {
          "internalType": "bytes32",
          "name": "",
          "type": "bytes32"
        }
      ],
      "name": "tokenMapping",
      "outputs": [
        {
          "internalType": "bytes32",
          "name": "ticker",
          "type": "bytes32"
        },
        {
          "internalType": "address",
          "name": "tokenAddress",
          "type": "address"
        }
      ],
      "stateMutability": "view",
      "type": "function",
      "constant": true
    },
    {
      "inputs": [
        {
          "internalType": "address",
          "name": "newOwner",
          "type": "address"
        }
      ],
      "name": "transferOwnership",
      "outputs": [],
      "stateMutability": "nonpayable",
      "type": "function"
    },
    {
      "inputs": [
        {
          "internalType": "uint256",
          "name": "amount",
          "type": "uint256"
        },
        {
          "internalType": "bytes32",
          "name": "ticker",
          "type": "bytes32"
        }
      ],
      "name": "withdraw",
      "outputs": [],
      "stateMutability": "nonpayable",
      "type": "function"
    },
    {
      "inputs": [
        {
          "internalType": "uint256",
          "name": "amount",
          "type": "uint256"
        }
      ],
      "name": "withdrawEth",
      "outputs": [],
      "stateMutability": "nonpayable",
      "type": "function"
    },
    {
      "inputs": [
        {
          "internalType": "bytes32",
          "name": "ticker",
          "type": "bytes32"
        },
        {
          "internalType": "enum Dex.Side",
          "name": "side",
          "type": "uint8"
        }
      ],
      "name": "getOrderBook",
      "outputs": [
        {
          "components": [
            {
              "internalType": "uint256",
              "name": "id",
              "type": "uint256"
            },
            {
              "internalType": "address",
              "name": "trader",
              "type": "address"
            },
            {
              "internalType": "enum Dex.Side",
              "name": "side",
              "type": "uint8"
            },
            {
              "internalType": "bytes32",
              "name": "ticker",
              "type": "bytes32"
            },
            {
              "internalType": "uint256",
              "name": "amount",
              "type": "uint256"
            },
            {
              "internalType": "uint256",
              "name": "price",
              "type": "uint256"
            },
            {
              "internalType": "uint256",
              "name": "filled",
              "type": "uint256"
            }
          ],
          "internalType": "struct Dex.Order[]",
          "name": "",
          "type": "tuple[]"
        }
      ],
      "stateMutability": "view",
      "type": "function",
      "constant": true
    },
    {
      "inputs": [
        {
          "internalType": "enum Dex.Side",
          "name": "side",
          "type": "uint8"
        },
        {
          "internalType": "bytes32",
          "name": "ticker",
          "type": "bytes32"
        },
        {
          "internalType": "uint256",
          "name": "amount",
          "type": "uint256"
        },
        {
          "internalType": "uint256",
          "name": "price",
          "type": "uint256"
        }
      ],
      "name": "createLimitOrder",
      "outputs": [],
      "stateMutability": "nonpayable",
      "type": "function"
    },
    {
      "inputs": [
        {
          "internalType": "enum Dex.Side",
          "name": "side",
          "type": "uint8"
        },
        {
          "internalType": "bytes32",
          "name": "ticker",
          "type": "bytes32"
        },
        {
          "internalType": "uint256",
          "name": "amount",
          "type": "uint256"
        }
      ],
      "name": "createMarketOrder",
      "outputs": [],
      "stateMutability": "nonpayable",
      "type": "function"
    }
  ],
  "bytecode": "0x608060405260006004553480156200001657600080fd5b50600062000029620000cd60201b60201c565b9050806000806101000a81548173ffffffffffffffffffffffffffffffffffffffff021916908373ffffffffffffffffffffffffffffffffffffffff1602179055508073ffffffffffffffffffffffffffffffffffffffff16600073ffffffffffffffffffffffffffffffffffffffff167f8be0079c531659141344cd1fd0a4f28419497f9722a3daafe3b4186f6b6457e060405160405180910390a350620000d5565b600033905090565b61379180620000e56000396000f3fe6080604052600436106100f35760003560e01c80639776aacf1161008a578063ba58ea6811610059578063ba58ea681461030e578063c311d0491461034b578063c9630cb014610374578063f2fde38b1461039d576100f3565b80639776aacf1461025657806399ec2f1c1461027f5780639ead7222146102a8578063a8d2021a146102e5576100f3565b8063667cb4ba116100c6578063667cb4ba146101ad5780636f3b62f9146101eb578063715018a6146102145780638da5cb5b1461022b576100f3565b80630bb431b6146100f85780631f14df691461013b5780632a58b33014610178578063439370b1146101a3575b600080fd5b34801561010457600080fd5b5061011f600480360381019061011a9190612c20565b6103c6565b6040516101329796959493929190612d49565b60405180910390f35b34801561014757600080fd5b50610162600480360381019061015d9190612de4565b61045f565b60405161016f9190612e24565b60405180910390f35b34801561018457600080fd5b5061018d610484565b60405161019a9190612e24565b60405180910390f35b6101ab61048a565b005b3480156101b957600080fd5b506101d460048036038101906101cf9190612e3f565b610583565b6040516101e2929190612e6c565b60405180910390f35b3480156101f757600080fd5b50610212600480360381019061020d9190612eba565b6105c7565b005b34801561022057600080fd5b5061022961100e565b005b34801561023757600080fd5b50610240611148565b60405161024d9190612f21565b60405180910390f35b34801561026257600080fd5b5061027d60048036038101906102789190612f3c565b611171565b005b34801561028b57600080fd5b506102a660048036038101906102a19190612f7c565b6112ac565b005b3480156102b457600080fd5b506102cf60048036038101906102ca9190612fcf565b612146565b6040516102dc9190612ffc565b60405180910390f35b3480156102f157600080fd5b5061030c60048036038101906103079190613017565b61216a565b005b34801561031a57600080fd5b5061033560048036038101906103309190613057565b612424565b6040516103429190613210565b60405180910390f35b34801561035757600080fd5b50610372600480360381019061036d9190612fcf565b61257d565b005b34801561038057600080fd5b5061039b60048036038101906103969190613017565b612793565b005b3480156103a957600080fd5b506103c460048036038101906103bf9190613232565b6129bc565b005b600560205282600052604060002060205281600052604060002081815481106103ee57600080fd5b906000526020600020906006020160009250925050508060000154908060010160009054906101000a900473ffffffffffffffffffffffffffffffffffffffff16908060010160149054906101000a900460ff16908060020154908060030154908060040154908060050154905087565b6003602052816000526040600020602052806000526040600020600091509150505481565b60045481565b61050d34600360003373ffffffffffffffffffffffffffffffffffffffff1673ffffffffffffffffffffffffffffffffffffffff16815260200190815260200160002060007f4554480000000000000000000000000000000000000000000000000000000000815260200190815260200160002054612b6590919063ffffffff16565b600360003373ffffffffffffffffffffffffffffffffffffffff1673ffffffffffffffffffffffffffffffffffffffff16815260200190815260200160002060007f4554480000000000000000000000000000000000000000000000000000000000815260200190815260200160002081905550565b60016020528060005260406000206000915090508060000154908060010160009054906101000a900473ffffffffffffffffffffffffffffffffffffffff16905082565b600060018111156105db576105da612cc3565b5b8460018111156105ee576105ed612cc3565b5b1415610688576106078183612b7b90919063ffffffff16565b600360003373ffffffffffffffffffffffffffffffffffffffff1673ffffffffffffffffffffffffffffffffffffffff16815260200190815260200160002060007f4554480000000000000000000000000000000000000000000000000000000000815260200190815260200160002054101561068357600080fd5b610713565b60018081111561069b5761069a612cc3565b5b8460018111156106ae576106ad612cc3565b5b14156107125781600360003373ffffffffffffffffffffffffffffffffffffffff1673ffffffffffffffffffffffffffffffffffffffff168152602001908152602001600020600085815260200190815260200160002054101561071157600080fd5b5b5b600060056000858152602001908152602001600020600086600181111561073d5761073c612cc3565b5b81526020019081526020016000209050806040518060e0016040528060045481526020013373ffffffffffffffffffffffffffffffffffffffff1681526020018760018111156107905761078f612cc3565b5b8152602001868152602001858152602001848152602001600081525090806001815401808255809150506001900390600052602060002090600602016000909190919091506000820151816000015560208201518160010160006101000a81548173ffffffffffffffffffffffffffffffffffffffff021916908373ffffffffffffffffffffffffffffffffffffffff16021790555060408201518160010160146101000a81548160ff0219169083600181111561085157610850612cc3565b5b0217905550606082015181600201556080820151816003015560a0820151816004015560c0820151816005015550506000808280549050116108945760006108a6565b600182805490506108a5919061328e565b5b9050600060018111156108bc576108bb612cc3565b5b8660018111156108cf576108ce612cc3565b5b1415610c4d575b6000811115610c48578181815481106108f2576108f16132c2565b5b90600052602060002090600602016004015482600183610912919061328e565b81548110610923576109226132c2565b5b906000526020600020906006020160040154111561094057610c48565b600082600183610950919061328e565b81548110610961576109606132c2565b5b90600052602060002090600602016040518060e0016040529081600082015481526020016001820160009054906101000a900473ffffffffffffffffffffffffffffffffffffffff1673ffffffffffffffffffffffffffffffffffffffff1673ffffffffffffffffffffffffffffffffffffffff1681526020016001820160149054906101000a900460ff1660018111156109ff576109fe612cc3565b5b6001811115610a1157610a10612cc3565b5b81526020016002820154815260200160038201548152602001600482015481526020016005820154815250509050828281548110610a5257610a516132c2565b5b906000526020600020906006020183600184610a6e919061328e565b81548110610a7f57610a7e6132c2565b5b9060005260206000209060060201600082015481600001556001820160009054906101000a900473ffffffffffffffffffffffffffffffffffffffff168160010160006101000a81548173ffffffffffffffffffffffffffffffffffffffff021916908373ffffffffffffffffffffffffffffffffffffffff1602179055506001820160149054906101000a900460ff168160010160146101000a81548160ff02191690836001811115610b3657610b35612cc3565b5b02179055506002820154816002015560038201548160030155600482015481600401556005820154816005015590505080838381548110610b7a57610b796132c2565b5b90600052602060002090600602016000820151816000015560208201518160010160006101000a81548173ffffffffffffffffffffffffffffffffffffffff021916908373ffffffffffffffffffffffffffffffffffffffff16021790555060408201518160010160146101000a81548160ff02191690836001811115610c0457610c03612cc3565b5b0217905550606082015181600201556080820151816003015560a0820151816004015560c082015181600501559050508180610c3f906132f1565b925050506108d6565b610fee565b600180811115610c6057610c5f612cc3565b5b866001811115610c7357610c72612cc3565b5b1415610fed575b6000811115610fec57818181548110610c9657610c956132c2565b5b90600052602060002090600602016004015482600183610cb6919061328e565b81548110610cc757610cc66132c2565b5b9060005260206000209060060201600401541015610ce457610fec565b600082600183610cf4919061328e565b81548110610d0557610d046132c2565b5b90600052602060002090600602016040518060e0016040529081600082015481526020016001820160009054906101000a900473ffffffffffffffffffffffffffffffffffffffff1673ffffffffffffffffffffffffffffffffffffffff1673ffffffffffffffffffffffffffffffffffffffff1681526020016001820160149054906101000a900460ff166001811115610da357610da2612cc3565b5b6001811115610db557610db4612cc3565b5b81526020016002820154815260200160038201548152602001600482015481526020016005820154815250509050828281548110610df657610df56132c2565b5b906000526020600020906006020183600184610e12919061328e565b81548110610e2357610e226132c2565b5b9060005260206000209060060201600082015481600001556001820160009054906101000a900473ffffffffffffffffffffffffffffffffffffffff168160010160006101000a81548173ffffffffffffffffffffffffffffffffffffffff021916908373ffffffffffffffffffffffffffffffffffffffff1602179055506001820160149054906101000a900460ff168160010160146101000a81548160ff02191690836001811115610eda57610ed9612cc3565b5b02179055506002820154816002015560038201548160030155600482015481600401556005820154816005015590505080838381548110610f1e57610f1d6132c2565b5b90600052602060002090600602016000820151816000015560208201518160010160006101000a81548173ffffffffffffffffffffffffffffffffffffffff021916908373ffffffffffffffffffffffffffffffffffffffff16021790555060408201518160010160146101000a81548160ff02191690836001811115610fa857610fa7612cc3565b5b0217905550606082015181600201556080820151816003015560a0820151816004015560c082015181600501559050508180610fe3906132f1565b92505050610c7a565b5b5b600460008154809291906110019061331b565b9190505550505050505050565b611016612b91565b73ffffffffffffffffffffffffffffffffffffffff16611034611148565b73ffffffffffffffffffffffffffffffffffffffff161461108a576040517f08c379a0000000000000000000000000000000000000000000000000000000008152600401611081906133c1565b60405180910390fd5b600073ffffffffffffffffffffffffffffffffffffffff1660008054906101000a900473ffffffffffffffffffffffffffffffffffffffff1673ffffffffffffffffffffffffffffffffffffffff167f8be0079c531659141344cd1fd0a4f28419497f9722a3daafe3b4186f6b6457e060405160405180910390a360008060006101000a81548173ffffffffffffffffffffffffffffffffffffffff021916908373ffffffffffffffffffffffffffffffffffffffff160217905550565b60008060009054906101000a900473ffffffffffffffffffffffffffffffffffffffff16905090565b611179612b91565b73ffffffffffffffffffffffffffffffffffffffff16611197611148565b73ffffffffffffffffffffffffffffffffffffffff16146111ed576040517f08c379a00000000000000000000000000000000000000000000000000000000081526004016111e4906133c1565b60405180910390fd5b60405180604001604052808381526020018273ffffffffffffffffffffffffffffffffffffffff16815250600160008481526020019081526020016000206000820151816000015560208201518160010160006101000a81548173ffffffffffffffffffffffffffffffffffffffff021916908373ffffffffffffffffffffffffffffffffffffffff16021790555090505060028290806001815401808255809150506001900390600052602060002001600090919091909150555050565b6001808111156112bf576112be612cc3565b5b8360018111156112d2576112d1612cc3565b5b141561136c5780600360003373ffffffffffffffffffffffffffffffffffffffff1673ffffffffffffffffffffffffffffffffffffffff168152602001908152602001600020600084815260200190815260200160002054101561136b576040517f08c379a00000000000000000000000000000000000000000000000000000000081526004016113629061342d565b60405180910390fd5b5b600080600181111561138157611380612cc3565b5b84600181111561139457611393612cc3565b5b14156113a357600190506113a8565b600090505b600060056000858152602001908152602001600020600083815260200190815260200160002090506000805b8280549050811080156113e657508482105b15611ef25760006114008387612b9990919063ffffffff16565b9050600061145f85848154811061141a576114196132c2565b5b90600052602060002090600602016005015486858154811061143f5761143e6132c2565b5b906000526020600020906006020160030154612b9990919063ffffffff16565b905060008282111561147357829050611477565b8190505b61148a8186612b6590919063ffffffff16565b94506114c3818786815481106114a3576114a26132c2565b5b906000526020600020906006020160050154612b6590919063ffffffff16565b8685815481106114d6576114d56132c2565b5b9060005260206000209060060201600501819055506000611524878681548110611503576115026132c2565b5b90600052602060002090600602016004015483612b7b90919063ffffffff16565b90506000600181111561153a57611539612cc3565b5b8b600181111561154d5761154c612cc3565b5b1415611a415780600360003373ffffffffffffffffffffffffffffffffffffffff1673ffffffffffffffffffffffffffffffffffffffff16815260200190815260200160002060007f455448000000000000000000000000000000000000000000000000000000000081526020019081526020016000205410156115d057600080fd5b61163382600360003373ffffffffffffffffffffffffffffffffffffffff1673ffffffffffffffffffffffffffffffffffffffff16815260200190815260200160002060008d815260200190815260200160002054612b6590919063ffffffff16565b600360003373ffffffffffffffffffffffffffffffffffffffff1673ffffffffffffffffffffffffffffffffffffffff16815260200190815260200160002060008c81526020019081526020016000208190555061170a81600360003373ffffffffffffffffffffffffffffffffffffffff1673ffffffffffffffffffffffffffffffffffffffff16815260200190815260200160002060007f4554480000000000000000000000000000000000000000000000000000000000815260200190815260200160002054612b9990919063ffffffff16565b600360003373ffffffffffffffffffffffffffffffffffffffff1673ffffffffffffffffffffffffffffffffffffffff16815260200190815260200160002060007f455448000000000000000000000000000000000000000000000000000000000081526020019081526020016000208190555061182582600360008a8981548110611799576117986132c2565b5b906000526020600020906006020160010160009054906101000a900473ffffffffffffffffffffffffffffffffffffffff1673ffffffffffffffffffffffffffffffffffffffff1673ffffffffffffffffffffffffffffffffffffffff16815260200190815260200160002060008d815260200190815260200160002054612b9990919063ffffffff16565b6003600089888154811061183c5761183b6132c2565b5b906000526020600020906006020160010160009054906101000a900473ffffffffffffffffffffffffffffffffffffffff1673ffffffffffffffffffffffffffffffffffffffff1673ffffffffffffffffffffffffffffffffffffffff16815260200190815260200160002060008c81526020019081526020016000208190555061198481600360008a89815481106118d8576118d76132c2565b5b906000526020600020906006020160010160009054906101000a900473ffffffffffffffffffffffffffffffffffffffff1673ffffffffffffffffffffffffffffffffffffffff1673ffffffffffffffffffffffffffffffffffffffff16815260200190815260200160002060007f4554480000000000000000000000000000000000000000000000000000000000815260200190815260200160002054612b6590919063ffffffff16565b6003600089888154811061199b5761199a6132c2565b5b906000526020600020906006020160010160009054906101000a900473ffffffffffffffffffffffffffffffffffffffff1673ffffffffffffffffffffffffffffffffffffffff1673ffffffffffffffffffffffffffffffffffffffff16815260200190815260200160002060007f4554480000000000000000000000000000000000000000000000000000000000815260200190815260200160002081905550611edb565b600180811115611a5457611a53612cc3565b5b8b6001811115611a6757611a66612cc3565b5b1415611eda57611ad082600360003373ffffffffffffffffffffffffffffffffffffffff1673ffffffffffffffffffffffffffffffffffffffff16815260200190815260200160002060008d815260200190815260200160002054612b9990919063ffffffff16565b600360003373ffffffffffffffffffffffffffffffffffffffff1673ffffffffffffffffffffffffffffffffffffffff16815260200190815260200160002060008c815260200190815260200160002081905550611ba781600360003373ffffffffffffffffffffffffffffffffffffffff1673ffffffffffffffffffffffffffffffffffffffff16815260200190815260200160002060007f4554480000000000000000000000000000000000000000000000000000000000815260200190815260200160002054612b6590919063ffffffff16565b600360003373ffffffffffffffffffffffffffffffffffffffff1673ffffffffffffffffffffffffffffffffffffffff16815260200190815260200160002060007f4554480000000000000000000000000000000000000000000000000000000000815260200190815260200160002081905550611cc282600360008a8981548110611c3657611c356132c2565b5b906000526020600020906006020160010160009054906101000a900473ffffffffffffffffffffffffffffffffffffffff1673ffffffffffffffffffffffffffffffffffffffff1673ffffffffffffffffffffffffffffffffffffffff16815260200190815260200160002060008d815260200190815260200160002054612b6590919063ffffffff16565b60036000898881548110611cd957611cd86132c2565b5b906000526020600020906006020160010160009054906101000a900473ffffffffffffffffffffffffffffffffffffffff1673ffffffffffffffffffffffffffffffffffffffff1673ffffffffffffffffffffffffffffffffffffffff16815260200190815260200160002060008c815260200190815260200160002081905550611e2181600360008a8981548110611d7557611d746132c2565b5b906000526020600020906006020160010160009054906101000a900473ffffffffffffffffffffffffffffffffffffffff1673ffffffffffffffffffffffffffffffffffffffff1673ffffffffffffffffffffffffffffffffffffffff16815260200190815260200160002060007f4554480000000000000000000000000000000000000000000000000000000000815260200190815260200160002054612b9990919063ffffffff16565b60036000898881548110611e3857611e376132c2565b5b906000526020600020906006020160010160009054906101000a900473ffffffffffffffffffffffffffffffffffffffff1673ffffffffffffffffffffffffffffffffffffffff1673ffffffffffffffffffffffffffffffffffffffff16815260200190815260200160002060007f45544800000000000000000000000000000000000000000000000000000000008152602001908152602001600020819055505b5b505050508080611eea9061331b565b9150506113d4565b505b60008280549050118015611f51575081600081548110611f1757611f166132c2565b5b90600052602060002090600602016003015482600081548110611f3d57611f3c6132c2565b5b906000526020600020906006020160050154145b1561213e5760005b60018380549050611f6a919061328e565b8110156120ab5782600182611f7f919061344d565b81548110611f9057611f8f6132c2565b5b9060005260206000209060060201838281548110611fb157611fb06132c2565b5b9060005260206000209060060201600082015481600001556001820160009054906101000a900473ffffffffffffffffffffffffffffffffffffffff168160010160006101000a81548173ffffffffffffffffffffffffffffffffffffffff021916908373ffffffffffffffffffffffffffffffffffffffff1602179055506001820160149054906101000a900460ff168160010160146101000a81548160ff0219169083600181111561206857612067612cc3565b5b02179055506002820154816002015560038201548160030155600482015481600401556005820154816005015590505080806120a39061331b565b915050611f59565b50818054806120bd576120bc6134a3565b5b60019003818190600052602060002090600602016000808201600090556001820160006101000a81549073ffffffffffffffffffffffffffffffffffffffff02191690556001820160146101000a81549060ff0219169055600282016000905560038201600090556004820160009055600582016000905550509055611ef4565b505050505050565b6002818154811061215657600080fd5b906000526020600020016000915090505481565b80600073ffffffffffffffffffffffffffffffffffffffff166001600083815260200190815260200160002060010160009054906101000a900473ffffffffffffffffffffffffffffffffffffffff1673ffffffffffffffffffffffffffffffffffffffff161415612211576040517f08c379a00000000000000000000000000000000000000000000000000000000081526004016122089061351e565b60405180910390fd5b82600360003373ffffffffffffffffffffffffffffffffffffffff1673ffffffffffffffffffffffffffffffffffffffff16815260200190815260200160002060008481526020019081526020016000205410156122a4576040517f08c379a000000000000000000000000000000000000000000000000000000000815260040161229b9061342d565b60405180910390fd5b61230783600360003373ffffffffffffffffffffffffffffffffffffffff1673ffffffffffffffffffffffffffffffffffffffff168152602001908152602001600020600085815260200190815260200160002054612b9990919063ffffffff16565b600360003373ffffffffffffffffffffffffffffffffffffffff1673ffffffffffffffffffffffffffffffffffffffff1681526020019081526020016000206000848152602001908152602001600020819055506001600083815260200190815260200160002060010160009054906101000a900473ffffffffffffffffffffffffffffffffffffffff1673ffffffffffffffffffffffffffffffffffffffff1663a9059cbb33856040518363ffffffff1660e01b81526004016123cc92919061353e565b602060405180830381600087803b1580156123e657600080fd5b505af11580156123fa573d6000803e3d6000fd5b505050506040513d601f19601f8201168201806040525081019061241e919061359f565b50505050565b606060056000848152602001908152602001600020600083600181111561244e5761244d612cc3565b5b8152602001908152602001600020805480602002602001604051908101604052809291908181526020016000905b8282101561257157838290600052602060002090600602016040518060e0016040529081600082015481526020016001820160009054906101000a900473ffffffffffffffffffffffffffffffffffffffff1673ffffffffffffffffffffffffffffffffffffffff1673ffffffffffffffffffffffffffffffffffffffff1681526020016001820160149054906101000a900460ff16600181111561252457612523612cc3565b5b600181111561253657612535612cc3565b5b81526020016002820154815260200160038201548152602001600482015481526020016005820154815250508152602001906001019061247c565b50505050905092915050565b80600360003373ffffffffffffffffffffffffffffffffffffffff1673ffffffffffffffffffffffffffffffffffffffff16815260200190815260200160002060007f45544800000000000000000000000000000000000000000000000000000000008152602001908152602001600020541015612630576040517f08c379a00000000000000000000000000000000000000000000000000000000081526004016126279061342d565b60405180910390fd5b6126b381600360003373ffffffffffffffffffffffffffffffffffffffff1673ffffffffffffffffffffffffffffffffffffffff16815260200190815260200160002060007f4554480000000000000000000000000000000000000000000000000000000000815260200190815260200160002054612b9990919063ffffffff16565b600360003373ffffffffffffffffffffffffffffffffffffffff1673ffffffffffffffffffffffffffffffffffffffff16815260200190815260200160002060007f45544800000000000000000000000000000000000000000000000000000000008152602001908152602001600020819055503373ffffffffffffffffffffffffffffffffffffffff168160405161274b90613623565b60006040518083038185875af1925050503d8060008114612788576040519150601f19603f3d011682016040523d82523d6000602084013e61278d565b606091505b50505050565b80600073ffffffffffffffffffffffffffffffffffffffff166001600083815260200190815260200160002060010160009054906101000a900473ffffffffffffffffffffffffffffffffffffffff1673ffffffffffffffffffffffffffffffffffffffff16141561283a576040517f08c379a00000000000000000000000000000000000000000000000000000000081526004016128319061351e565b60405180910390fd5b6001600083815260200190815260200160002060010160009054906101000a900473ffffffffffffffffffffffffffffffffffffffff1673ffffffffffffffffffffffffffffffffffffffff166323b872dd3330866040518463ffffffff1660e01b81526004016128ad93929190613638565b602060405180830381600087803b1580156128c757600080fd5b505af11580156128db573d6000803e3d6000fd5b505050506040513d601f19601f820116820180604052508101906128ff919061359f565b5061296383600360003373ffffffffffffffffffffffffffffffffffffffff1673ffffffffffffffffffffffffffffffffffffffff168152602001908152602001600020600085815260200190815260200160002054612b6590919063ffffffff16565b600360003373ffffffffffffffffffffffffffffffffffffffff1673ffffffffffffffffffffffffffffffffffffffff168152602001908152602001600020600084815260200190815260200160002081905550505050565b6129c4612b91565b73ffffffffffffffffffffffffffffffffffffffff166129e2611148565b73ffffffffffffffffffffffffffffffffffffffff1614612a38576040517f08c379a0000000000000000000000000000000000000000000000000000000008152600401612a2f906133c1565b60405180910390fd5b600073ffffffffffffffffffffffffffffffffffffffff168173ffffffffffffffffffffffffffffffffffffffff161415612aa8576040517f08c379a0000000000000000000000000000000000000000000000000000000008152600401612a9f906136e1565b60405180910390fd5b8073ffffffffffffffffffffffffffffffffffffffff1660008054906101000a900473ffffffffffffffffffffffffffffffffffffffff1673ffffffffffffffffffffffffffffffffffffffff167f8be0079c531659141344cd1fd0a4f28419497f9722a3daafe3b4186f6b6457e060405160405180910390a3806000806101000a81548173ffffffffffffffffffffffffffffffffffffffff021916908373ffffffffffffffffffffffffffffffffffffffff16021790555050565b60008183612b73919061344d565b905092915050565b60008183612b899190613701565b905092915050565b600033905090565b60008183612ba7919061328e565b905092915050565b600080fd5b6000819050919050565b612bc781612bb4565b8114612bd257600080fd5b50565b600081359050612be481612bbe565b92915050565b6000819050919050565b612bfd81612bea565b8114612c0857600080fd5b50565b600081359050612c1a81612bf4565b92915050565b600080600060608486031215612c3957612c38612baf565b5b6000612c4786828701612bd5565b9350506020612c5886828701612c0b565b9250506040612c6986828701612c0b565b9150509250925092565b612c7c81612bea565b82525050565b600073ffffffffffffffffffffffffffffffffffffffff82169050919050565b6000612cad82612c82565b9050919050565b612cbd81612ca2565b82525050565b7f4e487b7100000000000000000000000000000000000000000000000000000000600052602160045260246000fd5b60028110612d0357612d02612cc3565b5b50565b6000819050612d1482612cf2565b919050565b6000612d2482612d06565b9050919050565b612d3481612d19565b82525050565b612d4381612bb4565b82525050565b600060e082019050612d5e600083018a612c73565b612d6b6020830189612cb4565b612d786040830188612d2b565b612d856060830187612d3a565b612d926080830186612c73565b612d9f60a0830185612c73565b612dac60c0830184612c73565b98975050505050505050565b612dc181612ca2565b8114612dcc57600080fd5b50565b600081359050612dde81612db8565b92915050565b60008060408385031215612dfb57612dfa612baf565b5b6000612e0985828601612dcf565b9250506020612e1a85828601612bd5565b9150509250929050565b6000602082019050612e396000830184612c73565b92915050565b600060208284031215612e5557612e54612baf565b5b6000612e6384828501612bd5565b91505092915050565b6000604082019050612e816000830185612d3a565b612e8e6020830184612cb4565b9392505050565b60028110612ea257600080fd5b50565b600081359050612eb481612e95565b92915050565b60008060008060808587031215612ed457612ed3612baf565b5b6000612ee287828801612ea5565b9450506020612ef387828801612bd5565b9350506040612f0487828801612c0b565b9250506060612f1587828801612c0b565b91505092959194509250565b6000602082019050612f366000830184612cb4565b92915050565b60008060408385031215612f5357612f52612baf565b5b6000612f6185828601612bd5565b9250506020612f7285828601612dcf565b9150509250929050565b600080600060608486031215612f9557612f94612baf565b5b6000612fa386828701612ea5565b9350506020612fb486828701612bd5565b9250506040612fc586828701612c0b565b9150509250925092565b600060208284031215612fe557612fe4612baf565b5b6000612ff384828501612c0b565b91505092915050565b60006020820190506130116000830184612d3a565b92915050565b6000806040838503121561302e5761302d612baf565b5b600061303c85828601612c0b565b925050602061304d85828601612bd5565b9150509250929050565b6000806040838503121561306e5761306d612baf565b5b600061307c85828601612bd5565b925050602061308d85828601612ea5565b9150509250929050565b600081519050919050565b600082825260208201905092915050565b6000819050602082019050919050565b6130cc81612bea565b82525050565b6130db81612ca2565b82525050565b6130ea81612d19565b82525050565b6130f981612bb4565b82525050565b60e08201600082015161311560008501826130c3565b50602082015161312860208501826130d2565b50604082015161313b60408501826130e1565b50606082015161314e60608501826130f0565b50608082015161316160808501826130c3565b5060a082015161317460a08501826130c3565b5060c082015161318760c08501826130c3565b50505050565b600061319983836130ff565b60e08301905092915050565b6000602082019050919050565b60006131bd82613097565b6131c781856130a2565b93506131d2836130b3565b8060005b838110156132035781516131ea888261318d565b97506131f5836131a5565b9250506001810190506131d6565b5085935050505092915050565b6000602082019050818103600083015261322a81846131b2565b905092915050565b60006020828403121561324857613247612baf565b5b600061325684828501612dcf565b91505092915050565b7f4e487b7100000000000000000000000000000000000000000000000000000000600052601160045260246000fd5b600061329982612bea565b91506132a483612bea565b9250828210156132b7576132b661325f565b5b828203905092915050565b7f4e487b7100000000000000000000000000000000000000000000000000000000600052603260045260246000fd5b60006132fc82612bea565b915060008214156133105761330f61325f565b5b600182039050919050565b600061332682612bea565b91507fffffffffffffffffffffffffffffffffffffffffffffffffffffffffffffffff8214156133595761335861325f565b5b600182019050919050565b600082825260208201905092915050565b7f4f776e61626c653a2063616c6c6572206973206e6f7420746865206f776e6572600082015250565b60006133ab602083613364565b91506133b682613375565b602082019050919050565b600060208201905081810360008301526133da8161339e565b9050919050565b7f496e7375666669656e742062616c616e63650000000000000000000000000000600082015250565b6000613417601283613364565b9150613422826133e1565b602082019050919050565b600060208201905081810360008301526134468161340a565b9050919050565b600061345882612bea565b915061346383612bea565b9250827fffffffffffffffffffffffffffffffffffffffffffffffffffffffffffffffff038211156134985761349761325f565b5b828201905092915050565b7f4e487b7100000000000000000000000000000000000000000000000000000000600052603160045260246000fd5b7f746f6b656e20646f6573206e6f74206578697374000000000000000000000000600082015250565b6000613508601483613364565b9150613513826134d2565b602082019050919050565b60006020820190508181036000830152613537816134fb565b9050919050565b60006040820190506135536000830185612cb4565b6135606020830184612c73565b9392505050565b60008115159050919050565b61357c81613567565b811461358757600080fd5b50565b60008151905061359981613573565b92915050565b6000602082840312156135b5576135b4612baf565b5b60006135c38482850161358a565b91505092915050565b600081905092915050565b7f4554480000000000000000000000000000000000000000000000000000000000600082015250565b600061360d6003836135cc565b9150613618826135d7565b600382019050919050565b600061362e82613600565b9150819050919050565b600060608201905061364d6000830186612cb4565b61365a6020830185612cb4565b6136676040830184612c73565b949350505050565b7f4f776e61626c653a206e6577206f776e657220697320746865207a65726f206160008201527f6464726573730000000000000000000000000000000000000000000000000000602082015250565b60006136cb602683613364565b91506136d68261366f565b604082019050919050565b600060208201905081810360008301526136fa816136be565b9050919050565b600061370c82612bea565b915061371783612bea565b9250817fffffffffffffffffffffffffffffffffffffffffffffffffffffffffffffffff04831182151516156137505761374f61325f565b5b82820290509291505056fea26469706673582212203f1ec97fecfe40a9328646099b67c394a8a48d9452bdd6ddeb84c7a822ff75a964736f6c63430008090033",
  "immutableReferences": {},
  "source": "// SPDX-License-Identifier: MIT\r\npragma solidity >=0.4.22 <0.9.0;\r\n\r\n\r\npragma experimental ABIEncoderV2;\r\n\r\nimport \"./wallet.sol\";\r\n\r\ncontract Dex is Wallet {\r\n\r\n    using SafeMath for uint256;\r\n\r\n    enum Side {\r\n        BUY,\r\n        SELL\r\n    }\r\n\r\n    struct Order {\r\n        uint id;\r\n        address trader;\r\n        Side side;\r\n        bytes32 ticker;\r\n        uint amount;\r\n        uint price;\r\n        uint filled;\r\n    }\r\n\r\n    uint public nextOrderId = 0;\r\n\r\n    mapping(bytes32 => mapping(uint => Order[])) public orderBook;\r\n\r\n    function getOrderBook(bytes32 ticker, Side side) view public returns(Order[] memory){\r\n        return orderBook[ticker][uint(side)];\r\n    }\r\n\r\n    function createLimitOrder(Side side, bytes32 ticker, uint amount, uint price) public{\r\n        if(side == Side.BUY){\r\n            require(balances[msg.sender][\"ETH\"] >= amount.mul(price));\r\n        }\r\n        else if(side == Side.SELL){\r\n            require(balances[msg.sender][ticker] >= amount);\r\n        }\r\n\r\n        Order[] storage orders = orderBook[ticker][uint(side)];\r\n        orders.push(\r\n            Order(nextOrderId, msg.sender, side, ticker, amount, price, 0)\r\n        );\r\n\r\n        //Bubble sort\r\n        uint i = orders.length > 0 ? orders.length - 1 : 0;\r\n        if(side == Side.BUY){\r\n            while(i > 0){\r\n                if(orders[i - 1].price > orders[i].price) {\r\n                    break;\r\n                }\r\n                Order memory orderToMove = orders[i - 1];\r\n                orders[i - 1] = orders[i];\r\n                orders[i] = orderToMove;\r\n                i--;\r\n            }\r\n        }\r\n        else if(side == Side.SELL){\r\n            while(i > 0){\r\n                if(orders[i - 1].price < orders[i].price) {\r\n                    break;   \r\n                }\r\n                Order memory orderToMove = orders[i - 1];\r\n                orders[i - 1] = orders[i];\r\n                orders[i] = orderToMove;\r\n                i--;\r\n            }\r\n        }\r\n\r\n        nextOrderId++;\r\n    }\r\n\r\n    function createMarketOrder(Side side, bytes32 ticker, uint amount) public{\r\n        if(side == Side.SELL){\r\n            require(balances[msg.sender][ticker] >= amount, \"Insuffient balance\");\r\n        }\r\n        \r\n        uint orderBookSide;\r\n        if(side == Side.BUY){\r\n            orderBookSide = 1;\r\n        }\r\n        else{\r\n            orderBookSide = 0;\r\n        }\r\n        Order[] storage orders = orderBook[ticker][orderBookSide];\r\n\r\n        uint totalFilled = 0;\r\n\r\n        for (uint256 i = 0; i < orders.length && totalFilled < amount; i++) {\r\n            uint leftToFill = amount.sub(totalFilled);\r\n            uint availableToFill = orders[i].amount.sub(orders[i].filled);\r\n            uint filled = 0;\r\n            if(availableToFill > leftToFill){\r\n                filled = leftToFill; //Fill the entire market order\r\n            }\r\n            else{ \r\n                filled = availableToFill; //Fill as much as is available in order[i]\r\n            }\r\n\r\n            totalFilled = totalFilled.add(filled);\r\n            orders[i].filled = orders[i].filled.add(filled);\r\n            uint cost = filled.mul(orders[i].price);\r\n\r\n            if(side == Side.BUY){\r\n                //Verify that the buyer has enough ETH to cover the purchase (require)\r\n                require(balances[msg.sender][\"ETH\"] >= cost);\r\n                //msg.sender is the buyer\r\n                balances[msg.sender][ticker] = balances[msg.sender][ticker].add(filled);\r\n                balances[msg.sender][\"ETH\"] = balances[msg.sender][\"ETH\"].sub(cost);\r\n                \r\n                balances[orders[i].trader][ticker] = balances[orders[i].trader][ticker].sub(filled);\r\n                balances[orders[i].trader][\"ETH\"] = balances[orders[i].trader][\"ETH\"].add(cost);\r\n            }\r\n            else if(side == Side.SELL){\r\n                //Msg.sender is the seller\r\n                balances[msg.sender][ticker] = balances[msg.sender][ticker].sub(filled);\r\n                balances[msg.sender][\"ETH\"] = balances[msg.sender][\"ETH\"].add(cost);\r\n                \r\n                balances[orders[i].trader][ticker] = balances[orders[i].trader][ticker].add(filled);\r\n                balances[orders[i].trader][\"ETH\"] = balances[orders[i].trader][\"ETH\"].sub(cost);\r\n            }\r\n            \r\n        }\r\n            //Remove 100% filled orders from the orderbook\r\n        while(orders.length > 0 && orders[0].filled == orders[0].amount){\r\n            //Remove the top element in the orders array by overwriting every element\r\n            // with the next element in the order list\r\n            for (uint256 i = 0; i < orders.length - 1; i++) {\r\n                orders[i] = orders[i + 1];\r\n            }\r\n            orders.pop();\r\n        }\r\n        \r\n    }\r\n\r\n}\r\n\r\n\r\n\r\n",
  "sourcePath": "C:/Users/jflor/Documents/ETH201/Dex/contracts/dex.sol",
  "compiler": {
    "name": "solc",
    "version": "0.8.9+commit.e5eed63a.Emscripten.clang"
  },
  "schemaVersion": "3.3.4",
  "updatedAt": "2021-10-23T20:39:05.415Z",
  "networkType": "ethereum",
  "devdoc": {
    "kind": "dev",
    "methods": {
      "owner()": {
        "details": "Returns the address of the current owner."
      },
      "renounceOwnership()": {
        "details": "Leaves the contract without owner. It will not be possible to call `onlyOwner` functions anymore. Can only be called by the current owner. NOTE: Renouncing ownership will leave the contract without an owner, thereby removing any functionality that is only available to the owner."
      },
      "transferOwnership(address)": {
        "details": "Transfers ownership of the contract to a new account (`newOwner`). Can only be called by the current owner."
      }
    },
    "version": 1
  },
  "userdoc": {
    "kind": "user",
    "methods": {},
    "version": 1
  }
}